:100000006F00E07400000000D0070000CE07000081
:1000100000000000000000000000000000000000E0
:1000200000000000000000000000000000000000D0
:10003000CE07000000000000CE0700000000000016
:10004000CE070000CE070000CE070000CE0700005C
:10005000CE070000CE070000CE070000CE0700004C
:10006000CE070000CE070000CE070000CE0700003C
:10007000CE070000CE070000CE070000CE0700002C
:10008000CE070000CE070000CE070000CE0700001C
:10009000CE070000CE070000CE07000000000000E1
:1000A000634E050263C305042E86AA857D5515C2DD
:1000B00085466378B6006356C00006068606E36C84
:1000C000B6FE014563E4C500918D558D858205829C
:1000D000F5FA82808682C93F2E8582823305A04050
:1000E0006347B000B305B040C1B7B305B0408682E6
:1000F000653F3305A0408282868263C7050063495D
:1001000005005D372E858282B305B040E35B05FEB6
:100110003305A040513F3305B040828200003111C9
:1001200026C406C822C6AE84AA87B28599C60143F2
:1001300063D79600B684054319A00143A68633848D
:10014000964063530400014422863A853EC21AC099
:10015000EF007008024392472A87B30685000146E4
:10016000B385C4406342B00463D304008144B385C3
:1001700096003385E540630403026372B702930778
:10018000A002A38FF5FE9386F5FF637AD700238F35
:10019000F5FE9386E5FF6374D700A38EF5FEC2409B
:1001A0003244A24451018280B385C70003C50500D3
:1001B000B385C60005062380A5005DB7011106CEF4
:1001C00022CC26CA02C02A836357050089E68547E8
:1001D0003303A0403EC0058A1304100619C213045D
:1001E0001004BA8459141A853AC81AC22EC61AC401
:1001F000D535A5472243B24542479376F50F63E1D3
:10020000A7069386060393F6F60F938714002380C0
:10021000D4001A853AC83EC62EC479359246A24506
:10022000B24742472A8363FBB602824699C69306C9
:10023000D0022380D700938724003385E74093566C
:10024000F501AA962380070085860146FD17634BBA
:10025000D600F2406244D24405618280BE8461B718
:10026000A29655B7B305C70083C2070003C30500B4
:1002700005062380550023806700C9BFB75700409B
:100280009306107D9387074003D78701098B71EB95
:1002900003D70700B70603008506136707102390EE
:1002A000E7003757004013070740035647018357BD
:1002B0008701C207D18FF58FE399D7FE9307000D11
:1002C0002318F700B7060700B75700401306107D44
:1002D000938707409386260803D3470103D78701F6
:1002E000420733676700758F6316D70A3757004098
:1002F00023980700130707408357470193F7070820
:10030000E5DFB757004001479387074083D6470191
:1003100093F60608E5DEB306E50083C606002398DB
:10032000D70083D6470193F60610F9C603D74701D5
:10033000C1669386F6EF758F239AE7000545B75699
:10034000004037070700938606401307470803D687
:10035000460183D78601C207D18FF98FE399E7FE63
:100360000DA0FD1695F203D747011377071015C7A7
:1003700003D74701C1669386F6EF758F239AE7008E
:100380000545B757004003D7074013670720239060
:10039000E74082807D1629F2F9B703D7470113772A
:1003A000074019CB03D74701C1669386F6BF758F07
:1003B000239AE7000945F1B703D7470113770720D0
:1003C00019CB03D74701C1669386F6DF758F239A51
:1003D000E7000D457DB703D7470115459316470143
:1003E000E3D106FA03D74701FD769386F67F758F32
:1003F000239AE700114571B783D6470193F606406B
:1004000099CA03D74701C1669386F6BF758F239AB1
:10041000E70009452DB783D6470193F6062099CA10
:1004200003D74701C1669386F6DF758F239AE700ED
:100430000D4531B783D6470113964601635C06002C
:1004400003D74701FD769386F67F758F239AE700E1
:100450001145F5B505079376F70FE3E9B6EA0145CF
:10046000F9BDB75700409306107D9387074003D727
:100470008701098B631D071203D70700B706030026
:100480008506136707102390E700375700401307CE
:1004900007400356470183578701C207D18FF58F65
:1004A000E399D7FE9307000D2318F700B70607005E
:1004B000B75700401306107D9387074093862608A0
:1004C00003D3470103D78701420733676700758F5E
:1004D0006318D71223980700B75700409387074047
:1004E00003D747011377070865DF05476388E500F1
:1004F00003D70700136707402390E700B757004072
:1005000003D70740B7060300938707401367071018
:100510002390E700850603D6470103D787014207EA
:10052000518F758FE319D7FE1307100D2398E7003D
:10053000B7060300B75700401306107D93870740A6
:10054000890603D3470103D7870142073367670052
:10055000758F631BD70AB757004001479387074041
:1005600083D6470193F60604E5DE03D60701B306FA
:10057000E5002380C60083D6470193F60610A1E26A
:1005800083D6470193F60640B1EA83D6470193F636
:100590000620D9E283D6470113964601634F060829
:1005A00005079376F70FE3EDB6FA014589A0FD162E
:1005B000E39F06EA03D747011377071019CB03D748
:1005C0004701C1669386F6EF758F239AE7000545CC
:1005D00039A803D747011377074015CB03D7470145
:1005E000C1669386F6BF758F239AE7000945B75712
:1005F000004003D70740136707202390E74082801D
:100600007D16E31F06EA7DB77D1605FE65B703D7A5
:1006100047011377072019CB03D74701C16693869B
:10062000F6DF758F239AE7000D45D1B703D7470151
:10063000154593164701E3DC06FA03D74701FD761B
:100640009386F67F758F239AE70011454DB7B7075C
:1006500000E09387470F9C438280011122CC06CE95
:1006600026CA2AC002C82E84F9E1B70700E09387A2
:10067000470F9C4389C793F7070891E3C93FF240AE
:1006800022856244D24405618280B30694401D46AF
:1006900036876353D6001D473776020013061610BF
:1006A0008325030013F505083DED81C91AC63AC438
:1006B00036C2713F32432247924693A63600014626
:1006C00099E21306D7FF8247938534000808BE9548
:1006D0001AC43AC2112E42468247B70600E02243AE
:1006E00012479386860F90C28D45338697008146C8
:1006F0008342060085069387060133852700230081
:1007000055006305D7000506E394B6FE930647003F
:1007100093E606F82308D100C246BA942320D300FA
:10072000E3C584F6A9BF7D1625FE268489BF37035D
:1007300000E081441303430FE5B7511122C206C400
:100740002E84213FA24022851244310182809701EC
:1007500000209381210B1381010013050008731001
:1007600005308D46170500001305C589558D73109A
:100770005530170500201305E5889705002093855F
:10078000658801466356B50010C11105E34EB5FEFC
:1007900017050000130505659705002093858586DC
:1007A00017060020130606866388C500144194C10D
:1007B00011059105E39AC5FEB7F700E0054798C318
:1007C0008567938727A9739017347300203001A0A1
:1007D000371702401C47B7068000D58F1CC7AA8771
:1007E00003C7070001E73385A74082808507CDBF97
:1007F000130141FAA2CAA6C886CC2AC02EC23284EE
:10080000B68402CA8347040093061400A30FF100C4
:1008100081EBE64056445245C6441301C10582802F
:1008200036C6130750026380E702124682478545A9
:100830001305F1018297B24626C43684D247A244FA
:10084000AA973ECAC1B703471400130600039306D4
:100850000003A30FE10032C6930724006312D708F8
:100860003E8481468147A54511A8139727000504BA
:10087000BA970347F4FF8607B2978546130607FD2C
:100880001375F60FE3F3A5FE99C2A30FE1003EC86E
:10089000E14663D3F60036C81306C00681466318E6
:1008A000C7000347040085460504A30FE100034683
:1008B000F101130740066305E6066367C702930765
:1008C00080056301F60A93073006630EF60A31D2FB
:1008D0001246824785451305F101829726C4B9BFA8
:1008E0009306000236C6ADBF13075007630AE6023F
:1008F000130780076308E60613073007E31AE6FCD0
:100900003ECC9387440084403EC42685C93DE247DF
:10091000AA856357F008C2463246381826851DA0BE
:10092000938744003EC49DC61306B6F8181093364C
:10093000160088400146A9455130C2463246381853
:10094000AA850810EFF0AFFD1246AA852818824745
:100950008297EDB59307500718108546E30BF6FC18
:100960008146C1BF8840130686FA93874400181059
:10097000854613361600C1453EC48930C24632460C
:10098000AA8538187DBF938744003EC49C40C24668
:100990003246A30FF100381885451305F1015DB704
:1009A000124626856DB71301C1FD32CA2A862EC8AC
:1009B00036CC814514081305A07306C63ACE3ED046
:1009C00036C03D35B240130141028280AA850565DB
:1009D000130585D2C9BF2A96AA876393C700828070
:1009E0002380B7008507D5BF81476313F600828057
:1009F0003387F500834607003307F500850723009A
:100A0000D700E5B7511106C422C226C0AA84C13B53
:100A10002A84AA852685913105658545130545D427
:100A20002D39A24013051400124482443101828002
:100A3000B7270240054798C3B71702403707080198
:100A400023A207001307170898C337079F0098C70A
:100A5000371702401C4393966700E3DD06FE5C43B4
:100A6000B7160240F19B93E727005CC32147DC42A5
:100A7000B18BE39EE7FEB70700E09387870F23A0C3
:100A80000700B70700E09387470F1307000898C3D4
:100A90008280211106CA22C826C6593FB7170240D4
:100AA000984B37062000B706E0FF518F98CB984B44
:100AB000FD16758F98CBD84FB706C0FBF516518F32
:100AC000D8CF984F1367170198CFB7070140D84385
:100AD000758FD8C3D843FD769386F60FD8C3B71762
:100AE000014098431377F7F098C398431367070DB5
:100AF00098C39843758F98C398438566938606D0AC
:100B0000558F98C3B757004003D74740C1669386B7
:100B100006FC758F136707032392E740617721076F
:100B2000239EE74003D70740136717002390E74051
:100B300003D747411377071019CF03D74741C16641
:100B40009386F6EF758F056593870740130585D467
:100B5000239AE700453D0565130545D63754004007
:100B600055358144130404409306007D81470357A3
:100B70008401098B631C0712ADEB03570400B70611
:100B800003008506136707102310E4000356440191
:100B9000035784014207518F758FE319D7FE1397CE
:100BA00024001377C70FB70607002318E4001306C5
:100BB000107D93862608835544010357840142071C
:100BC0004D8F758F6303D7027D1675F683574401E9
:100BD00093F707106381070E83574401416713079A
:100BE000F7EFF98F231AF4008547035704001367C2
:100BF00007202310E40091E7139514001375E50F07
:100C0000F13385049307F007E390F4F605651305C7
:100C100085D8CD3B85450A8523000100EFF00FE61E
:100C2000631A050E930700102314F1008D458947C0
:100C300028002305F100EFF06FE4631D050CA3010C
:100C400001002312010023030100056485451305FB
:100C50003100EFF01F8101C5130504DA65338345C8
:100C600031000565130585DB3D3B8D454800EFF000
:100C70004FFF01C5130504DA713383464100034673
:100C80005100834561000565130585DC293BB7F7F5
:100C900000E09847B7975B00938707D83E97B7F671
:100CA00000E09C46998FE3CE07FE4DB7FD16E3D0DA
:100CB00006EC95476DBD8357440193F7074099CBE8
:100CC0008357440141671307F7BFF98F231AF400D4
:100CD000894721BF8357440193F7072099CB835756
:100CE000440141671307F7DFF98F231AF4008D479A
:100CF000EDBD03574401954793164701E3D706EE30
:100D0000835744017D771307F77FF98F231AF40087
:100D10009147E1BD0565130505DAED31D240424446
:100D2000B2447D5561018280416464726573733A97
:100D30002030782530325820526573706F6E6465AC
:100D4000642E0A000A0000004661696C6564207424
:100D50006F20696E697420746865204932432042AF
:100D6000757300002D2D2D2D5363616E6E696E67B6
:100D7000204932432042757320666F7220446576A5
:100D8000696365732D2D2D002D2D2D2D446F6E65FE
:100D9000205363616E6E696E672D2D2D2D0A000044
:100DA0004572726F72205573696E67207468652092
:100DB00049324320427573005365636F6E64733A22
:100DC00020253032580A000054696D653A202530DC
:100DD00032583A253032583A253032580A0A000043
:00000001FF
